:100000000205B7008F828E83E0540100000070F873
:100010002278FFE4F6D8FD020615BB010689828A24
:1000200083E0225002E722BBFE02E32289828A8318
:10003000E49322BB010689828A83F0225002F722D0
:10004000BBFE01F322C5F0F8A3E028F0C5F0F8E507
:1000500082158270021583E038F022EF2BFFEE3A12
:10006000FEED39FDEC38FC22E88FF0A4CC8BF0A437
:100070002CFCE98EF0A42CFC8AF0EDA42CFCEA8E7A
:10008000F0A4CDA8F08BF0A42DCC3825F0FDE98F9D
:10009000F0A42CCD35F0FCEB8EF0A4FEA9F0EB8F94
:1000A000F0A4CFC5F02ECD39FEE43CFCEAA42DCE61
:1000B00035F0FDE43CFC2275F008758200EF2FFF5F
:1000C000EE33FECD33CDCC33CCC58233C5829BED30
:1000D0009AEC99E58298400CF582EE9BFEED9AFD34
:1000E000EC99FC0FD5F0D6E4CEFBE4CDFAE4CCF9E4
:1000F000A88222B800C1B90059BA002DEC8BF08457
:10010000CFCECDFCE5F0CBF97818EF2FFFEE33FE24
:10011000ED33FDEC33FCEB33FB10D703994004EBDC
:1001200099FB0FD8E5E4F9FA227818EF2FFFEE33A8
:10013000FEED33FDEC33FCC933C910D7059BE99ABA
:100140004007EC9BFCE99AF90FD8E0E4C9FAE4CC4B
:10015000FB2275F010EF2FFFEE33FEED33FDCC33B5
:10016000CCC833C810D7079BEC9AE899400AED9B9E
:10017000FDEC9AFCE899F80FD5F0DAE4CDFBE4CC7D
:10018000FAE4C8F922EF4BFFEE4AFEED49FDEC48D8
:10019000FC22EB9FF5F0EA9E42F0E99D42F0E89CDC
:1001A00045F022E8600FECC313FCED13FDEE13FEE7
:1001B000EF13FFD8F122E8600FEFC333FFEE33FEF9
:1001C000ED33FDEC33FCD8F122BB010789828A8331
:1001D0000202035005E9F80202BCBBFE05E9F80281
:1001E00002C889828A830202D4BB010789828A837A
:1001F00002021B5005E9F80202E4BBFE05E9F80221
:1002000002F022E0FCA3E0FDA3E0FEA3E0FF22E079
:10021000F8A3E0F9A3E0FAA3E0FB22ECF0A3EDF0F1
:10022000A3EEF0A3EFF022E0FBA3E0FAA3E0F922B3
:10023000EBF0A3EAF0A3E9F022E493FB740193FA54
:10024000740293F922D083D082F8E493701274017F
:1002500093700DA3A393F8740193F5828883E473DC
:100260007402936860EFA3A3A380DFE50C2582F5F9
:1002700082E50B3583F583B50B0485820C2210AF24
:100280000685820CF50B2285820CF50BD2AF22EC91
:100290008EF0A4CCC5F0CCCDF8EFA4CEC5F02DFDEA
:1002A000E43CFCE8A42EC8C5F03DFDE43CFCEFA412
:1002B000FFE5F028FEE43DFDE43CFC22E6FC08E618
:1002C000FD08E6FE08E6FF22E2FC08E2FD08E2FE89
:1002D00008E2FF22E493FC740193FD740293FE7420
:1002E0000393FF22ECF608EDF608EEF608EFF6228F
:1002F000ECF208EDF208EEF208EFF2227B007A4011
:1003000079807DC67CBD1208499040827418F07BCC
:10031000007A4079847D107CD5120849904086741B
:1003200018F07B007A4079887D277CEF120849908D
:10033000408A7418F07B007A40798C7D937C21127E
:10034000084990408E7419F07B007A4079907D8244
:100350007C231208499040927419F07B007A40790E
:10036000947DFE7C271208499040967419F07B001A
:100370007A4079987D037C0012084990409A741B5A
:10038000F07B007A40799C7D3E7C001208499040C9
:100390009E741BF09043007402F09040007408F0CB
:1003A0009042007403F07B0C7A0179081206F290F7
:1003B00046A1EFF07B007A4279227D087C0012088A
:1003C000497B007A4279207D517C121208499000C5
:1003D00056E4F07F197E007D007C009000521202EE
:1003E0001B900052120203D3EF9400EE9400404E93
:1003F000900056E0FFEF64036044904225E0FFEF79
:100400005401FF7E00900056E0FEEE25E0FEEE4F28
:10041000FFEF5403FF900056EFF07FE07E017D0078
:100420007C001207009000521202037BFF7AFF79D2
:10043000FF78FF12005B90005212021B80A3900015
:1004400052120203EF4E70057F031208267B007ADA
:100450004079047D007C011208499040047407F043
:10046000904006E4F09040087448F0904004E4F0B6
:100470009040017402F09043A2E0FFEF44FFFF9030
:1004800043A2EFF0227B007A4679E81206F2EF44AD
:1004900005FD7B007A4679E8120858750A00E50ADE
:1004A000C39409503AAF0AEF75F005A42467F582AA
:1004B000E43408F583AF82AE838E088F09AE08AFAF
:1004C000098F828E83120239AE08AF098F828E8324
:1004D000740393FC740493FD1207F6050A80BF7B36
:1004E000087A0079001207A57B017A507903120679
:1004F000F2EF4402FD7B017A5079031208587B0128
:100500007A5079131206F2EF4402FD7B017A50799A
:10051000131208589043A0E0FFEF4440FF9043A01F
:10052000EFF09043C2E0FFEF4410FF9043C2EFF0C2
:100530007B087A037920C003C002C0017B007A5196
:100540007912900057120230D001D002D0037F08F8
:100550007E00120771904322E0FFEF4408FF9043B2
:1005600022EFF09046ECE0FFEFC394055006904672
:1005700089743AF09048007431F01202FC904800FF
:1005800074B1F012073B7B007A4379A0C003C0022C
:10059000C0017B007A4379B0900057120230D0013D
:1005A000D002D0037F0E7E001207719043B0E0FFAF
:1005B000EF54FDFFEFF022759300780075834675C8
:1005C00082E8E04401F0009046ECE0F99046FAE061
:1005D000FAB903225420B40012B8001AEA901FFF9F
:1005E000F07401901FFEF09046F6F0901FFEE06060
:1005F00005901FFFE0FA90480074C0F075810C90E0
:10060000000078007920E4F0A3D8FCD9FAEA900041
:100610004DF0020011750B1F750CFD1206A412049B
:100620008502065F020838E493A3F8E493A340032D
:10063000F68001F208DFF48029E493A3F85407243C
:100640000CC8C333C4540F4420C8834004F45680FC
:100650000146F6DFE4800B01020408102040809080
:1006600007D2E47E019360BCA3FF543F30E50954F8
:100670001FFEE493A360010ECF54C025E060A840A4
:10068000B8E493A3FAE493A3F8E493A3C8C582C89B
:10069000CAC583CAF0A3C8C582C8CAC583CADFE970
:1006A000DEE780BE900052E4F0900052E0FFEFD30E
:1006B000941F503D900052E0FF7E02EF8EF0A4FFA9
:1006C000AEF0EF2400FFEE3444FEAA06A9077B013A
:1006D000C003C002C0017BFF7A087964AC02AD019F
:1006E000D001D002D00312084B900052E004F080F9
:0E06F000B8228B938A838982E0759300FF22E3
:10070000EC4D4E700D78FCEF24E950032840FD229B
:1007100000007BF178DA0000EF28FF78FFEE38FE6A
:10072000ED38FDEC38FC50E7EF2BFFEE38FEED38EE
:10073000FDEC38FC40F222050203047B0C7A0179BF
:10074000CF1206F2900052EFF0900052E0FFEF540B
:1007500007FF90586EEFF0900052E0FFEFC4540F87
:10076000FFEF540FFF90586FEFF09058767444F0FD
:1007700022758600EF4E6027EF60010E75930090A2
:100780000057E0F595A3E0F585A3E0F5848B938A07
:10079000838982E0A30586F0A31586DFF6DEF4E404
:1007A000F593F59522ACEAADA08B938A838982E01C
:1007B000F96017A3E0F5EAA3E0F5A0A3E060F4FA7E
:1007C000A3E0F8A3E0F2DAF8D9E98DA08CEAE4F529
:1007D0009322440049016E360044004400005DC08D
:1007E0004100481844004E2EE0000043005A00002B
:1007F0000041005F0000EC4D6011ED60010C8B9337
:100800008A838982E4F0A3DDFCDCFA7593002290F0
:1008100043A2E0FFEF4480FFEFF09043B2E0FFEF30
:100820004480FFEFF022900057EFF0900057E0FF78
:10083000900057EFF080FE22D2AF9044F474FDF0A8
:1008400012080F12080F80FE228B938A838982ED93
:10085000F0A3ECF0759300228B938A838982EDF0EC
:100860007593002280FE32005100001000512000DC
:10087000500051C000100051F000100100001000A5
:1008800001140008000140000A00014C00020001B0
:0408900050000020F4
:00000001FF
